:03000000020B40B0
:0C0B4000787FE4F6D8FD758131020B8748
:0A0DB9000814CC740068000000AAC2
:100A0000E4F527F528120E91120EE07FE8120EF0A1
:100A100030010B7B007A00790F120D118F0AE50D62
:100A200060EEE4F50D120BCC120CCD30016FE50A2F
:100A3000606BE50AB40109E4F515F517C201805DA4
:100A4000E50A6402600CE50A64036006E50A6405D1
:100A5000704BE50AB4020D751501852416E4F517EF
:100A6000F5188018E50AB40307E4F515F5168006B5
:100A7000751501852416751701852D187B007A00E0
:100A800079147D05120D4C8E278F28EEF519E52877
:100A9000F51A7B007A0079147D08120E317FE81276
:050AA0000EF0020A1037
:080DC300012200012100C180A2
:0A0EF000EFD3940040031F80F722A7
:100E5400E4FED2B67F08120EF0C2B67F50120EF036
:100E6400D2B67F05120EF0A2B6E433FE7F14020E52
:010E7400F08D
:100DE800E4FD7E08D2B67F01120EF0C2B6EDC31341
:100DF800FDD2B630B6034305807F04120EF0DEE460
:040E0800AF057E00B4
:010E0C0022C3
:020E7500AE07C6
:100E77007D08C2B6EE1392B67F05120EF0D2B6EE1B
:0A0E8700C313FEDDED7F04020EF040
:100BCC00120E547FCC120E757F44120E757F7D125F
:100BDC000EF0120E547FCC120E757FBE120E7512D3
:100BEC000DE88F22120DE88F21E521D3947F400B65
:100BFC006322FFE521F404F521C200E522C4540F61
:100C0C00FFE521C454F02FF524E522540FFD75F0B7
:100C1C000AA4FFE5F0C4F854F0C8EFC4540F48F52B
:100C2C0025ED75F064A4FFE5F0C4F854F0C8EFC4EA
:100C3C00540F4875F00A8485F026E52575F00AA452
:050C4C002526F523221E
:100ECE00AD071FED600BE4FEEEC3946450F20E808E
:010EDE00F71C
:010EDF0022F0
:030EFA00120EFDD8
:060EFD00E4FF0FBF01FC41
:010F030022CB
:100EA700D290120EFDC2907F19120ECED290120E62
:040EB700FA020EFD30
:100E0D00E4FD3090FD120EFA120EFDE4FE3090015D
:100E1D000E2090FDE53125E0F531EE42310DBD0896
:030E2D00E1AF3101
:010E3000229F
:100CCD00120EA7D29020903B3090FD2090FD120E79
:100CDD000DA907120E0DAC07120E0DAB07120E0D5E
:100CED00AA07120E0DAE07C290E4FD120EFD0DBD4A
:100CFD0007F9D290E92C2B2AB50608892D8C2F8B5C
:030D0D002E8A30FB
:010D100022C0
:100DCB00020B0000010A00010D00010E00011300CF
:0C0DDB00C101040F00000000020800002D
:100D1100E4FF120AA5647E7031900003120ABE64DA
:100D21007F7027900001120ABEFEB4020B900002F0
:100D3100120ABEB402020F22EEB401020F0F90009C
:0A0D410002120ABEB401030F0F0FE7
:010D4B002285
:100E9100438920758DFD758BFDD28EC29FD29ED266
:060EA1009CD2AFD2AC228E
:080F04008F993099FDC299227A
:060F0C00AE07120F0422E3
:100EBB00120AA5FF600C120F04740129F9E43AFA27
:030ECB0080EE2294
:060E31008B298A2A892B9F
:100E3700E4FEEEC39D5015AB29AA2AA92B8E827515
:0C0E47008300120ABEFF120F040E80E6AA
:010E5300227C
:03002300020D8546
:090D8500C0E0C0D075D000C00030
:100D8E00309821C2ACC298740F2509F8A6990509AE
:100D9E00E50970020508640445087006D201F508DD
:040DAE00F509D2ACC5
:070DB200D000D0D0D0E032E8
:100EE000438901758C27758A10D2A9D2AFD28C2282
:03000B00020C5193
:100C5100C0E0C0F0C0D075D000C000C004C005C065
:100C610006C007758C27758A10050CE50C70020506
:100C71000BAE0BFF7C007D1E120AEBED4C70037571
:100C81000D01AE0BAF0C7C007D32120AEBED64015D
:100C91004C7003750E01AE0BAF0C7C007D64120A23
:100CA100EBED64024C7003751301D3E50C9400E580
:100CB1000B94014006750B00750C00D007D006D0CF
:0C0CC10005D004D000D0D0D0F0D0E0323C
:1008000000102030405060708191A1B1C1D1E1F160
:1008100012023222524272629383B3A3D3C3F3E330
:100820002434041464744454A5B58595E5F5C5D500
:100830003626160676665646B7A79787F7E7D7C7D0
:100840004858687808182838C9D9E9F98999A9B9A0
:100850005A4A7A6A1A0A3A2ADBCBFBEB9B8BBBAB70
:100860006C7C4C5C2C3C0C1CEDFDCDDDADBD8D9D40
:100870007E6E5E4E3E2E1E0EFFEFDFCFBFAF9F8F10
:100880009181B1A1D1C1F1E11000302050407060E0
:100890008393A3B3C3D3E3F30212223242526272B0
:1008A000B5A59585F5E5D5C5342414047464544480
:1008B000A7B78797E7F7C7D7263606166676465650
:1008C000D9C9F9E99989B9A9584878681808382820
:1008D000CBDBEBFB8B9BABBB4A5A6A7A0A1A2A3AF0
:1008E000FDEDDDCDBDAD9D8D7C6C5C4C3C2C1C0CC0
:1008F000EFFFCFDFAFBF8F9F6E7E4E5E2E3E0E1E90
:100900000021426384A5C6E708294A6B8CADCEEF6F
:1009100031107352B594F7D639187B5ABD9CFFDE5F
:1009200062432001E6C7A4856A4B2809EECFAC8D4F
:1009300053721130D7F695B45B7A1938DFFE9DBC3F
:10094000C4E586A740610223CCED8EAF48690A2B2F
:10095000F5D4B79671503312FDDCBF9E79583B1A1F
:10096000A687E4C522036041AE8FECCD2A0B68490F
:1009700097B6D5F4133251709FBEDDFC1B3A5978FF
:1009800088A9CAEB0C2D4E6F80A1C2E304254667EF
:10099000B998FBDA3D1C7F5EB190F3D235147756DF
:1009A000EACBA8896E4F2C0DE2C3A08166472405CF
:1009B000DBFA99B85F7E1D3CD3F291B057761534BF
:1009C0004C6D0E2FC8E98AAB44650627C0E182A3AF
:1009D0007D5C3F1EF9D8BB9A75543716F1D0B3929F
:1009E0002E0F6C4DAA8BE8C926076445A283E0C18F
:1009F0001F3E5D7C9BBAD9F81736557493B2D1F07F
:080D4C008B298A2A892B8D2CCA
:100D54007FFF7DFFAE2C152CEE6021AB29052BE522
:100D64002BAA2A7002052A14F9120AA56FFE90080C
:100D740000936DFFEE90090093FD80D8EFFEEDFF28
:010D8400224C
:100B4C00020A00E493A3F8E493A34003F68001F2B5
:100B5C0008DFF48029E493A3F85407240CC8C333AA
:100B6C00C4540F4420C8834004F456800146F6DF79
:100B7C00E4800B0102040810204080900DB9E47E43
:100B8C00019360BCA3FF543F30E509541FFEE4936E
:100B9C00A360010ECF54C025E060A840B8E493A335
:100BAC00FAE493A3F8E493A3C8C582C8CAC583CA60
:100BBC00F0A3C8C582C8CAC583CADFE9DEE780BE18
:010DE700000B
:100AA500BB010689828A83E0225002E722BBFE024F
:090AB500E32289828A83E4932282
:100ABE00BB010CE58229F582E5833AF583E02250ED
:100ACE0006E92582F8E622BBFE06E92582F8E22237
:0D0ADE00E58229F582E5833AF583E4932251
:100AEB00BC000BBE0029EF8DF084FFADF022E4CCEF
:100AFB00F875F008EF2FFFEE33FEEC33FCEE9DECB8
:100B0B00984005FCEE9DFE0FD5F0E9E4CEFD22EDFD
:100B1B00F8F5F0EE8420D21CFEADF075F008EF2F47
:100B2B00FFED33FD4007985006D5F0F222C398FD38
:050B3B000FD5F0EA22D5
:00000001FF
